:0609A0004300E4FF000328
:10086200E4900000F0900000E075F003A424E4F5A9
:1008720082E43400F583A3E0FAA3E0F91203DB80FB
:01088200E491
:0A099600EF1F70011E144E70F722CF
:10088300AD07AC06ED1DAE0470011C4E60107FF881
:0F0893007E001209967FF87E0012099680E622F9
:1008D20020B2107F057E0012088320B20330B2FDE1
:0608E2007F01227F0022CD
:1008E80020B3107F057E0012088320B30630B3FDC5
:0608F8007F01227F0022B7
:1008FE0020800D7F057E001208832080037F012259
:03090E007F002245
:1009110020810D7F057E001208832081037F012243
:030921007F002232
:1009240020820D7F057E001208832082037F01222E
:030934007F00221F
:1009370020830D7F057E001208832083037F012219
:030947007F00220C
:10094A0020840D7F057E001208832084037F012204
:03095A007F0022F9
:10095D0020860D7F057E001208832086037F0122ED
:03096D007F0022E6
:1009700020850D7F057E001208832085037F0122DC
:030980007F0022D3
:1009830020870D7F057E001208832087037F0122C5
:030993007F0022C0
:1008A200E41203719000D3E0FF9000D0E0FBA3E0DC
:0808B200FAA3E0F9EF02037163
:1008BA00ED12034F120309FFB4FF0474078005EF1A
:0808CA00B40804E412037122DA
:0D0688009000CDEBF0A3EAF0A3E9F0AC0583
:10069500E4FDEC14FFEDC39F5024ED2401FFE4338A
:1006A500FE9000CDE0FBA3E0FAA3E0F98F828E83F4
:1006B5001203228D827583001203830D80D490006E
:1006C500D1E0FF9000CDE0FBA3E0FAA3E0F9AE0591
:0906D5008E82758300EF0203839D
:0B044E009000CDEBF0A3EAF0A3E9F072
:10045900E49000D9F0A3F01206DE9000D6E0FF90F8
:1004690000D9E0FCA3E0FDC39F7480F8EC64809898
:1004790050669000D3E0FBA3E0FAA3E0F98D828CEB
:100489008312032275F008A4FF9000CDE0FBA3E0DE
:10049900FAA3E02FF9EA35F0FAC003C002C001A3BC
:1004A900E0FBA3E0FAA3E0F99000D9E0FEA3E0F5B0
:1004B900828E831203227E00D001D002D00329F953
:1004C900EE3AFA74011203719000DAE004F0708ACE
:1004D9009000D9E004F080829000D8E075F008A47B
:1004E900FF9000CDE0FBA3E0FAA3E02FF9EA35F095
:1004F900FA9000D7E07E0029F9EE3AFA7401020376
:010509007180
:10050A009000CDEBF0A3EAF0A3E9F09000D6E0FF6B
:10051A007E0012076C12072E7C007D081203A5903C
:10052A0000CDE0FBA3E0FAA3E0F9ED120371120794
:10053A002E7C007D081203A59000D0E0FBA3E0FA10
:10054A00A3E0F9ED1203719000D0E0FBA3E0FAA357
:10055A00E0F912030975F008A4FF9000D3E0FBA3A9
:10056A00E0FAA3E02FF9EA35F0FAC003C002C001AD
:10057A009000CDE0FBA3E0FAA3E0F91203097E00A4
:10058A00D001D002D00329F9EE3AFA120309708594
:04059A0004020371E3
:0507F7009000CDEFF0C1
:1007FC00E4A3F0E49000CFF09000CDE0FE9000CFA9
:10080C00E0FFD39E50109000CEE0FD12082F900018
:10081C00CFE004F080E29000CEE004F0E0C3940856
:02082C0040D1B9
:01082E0022A7
:10000300E4900000F0A304F0A3F0E4A3F090004612
:10001300F0A3F090004CF0900000E0FF1207F712FD
:1000230008D2EF6015900000E0C394075005E00488
:10003300F080E4E4900000F080DD1208E8EF60D780
:10004300900000E075F00AA4FFC374649F90004B16
:10005300F07B017A0079061206DE900046E0FFA3EA
:10006300E0FE75F008A42406F582E43400F583E588
:10007300822FF582E43583F5837401F090004DEF10
:10008300F090008DEEF0900002E0900004F09000FC
:1000930003E0900005F09000D07401F0A37400F029
:1000A300A37449F0A37401F0A37400F0A37406F0E1
:1000B30090004AE09000D6F07B017A00794812055F
:1000C3000AE490004AF07B017A00790612062A902E
:1000D3000003E0F460221208FEEF700612094AEFF3
:1000E30060169000D07401F0A37400F0A37403F0C1
:1000F300A374FFF07B018027900003E06401602577
:10010300120911EF7006120970EF60199000D07494
:1001130001F0A37400F0A37403F0A37401F0FB7A5D
:100123000079028058900002E0F46026120924EF5F
:10013300700612095DEF601A9000D07401F0A37489
:1001430000F0A37402F0A374FFF07B017A0079033B
:10015300802B900002E064016026120937EF7006DD
:10016300120983EF601A9000D07401F0A37400F0B9
:10017300A37402F0A37401F0FB7A0079031208A2BE
:100183001208E8EF60111208E8EF700B7B017A00A8
:10019300790612062A80EF90004CE004F090004BA1
:1001A300E0FF90004AE0FE04F0EED39F500302000C
:1001B300C9E4F0900002E0FF6006900004E0600CE8
:1001C300900003E06013900005E0700D900004EFD1
:1001D300F0900003E0900005F07B017A00794690EF
:1001E3000004E0FD1208BA7A0009900005E0FD1250
:1001F30008BA900049E0FF900047E06F7051A3E018
:10020300FE900046E06E7047900001E004F0E0FDD0
:10021300244CF582E43400F583EEF0748C2DF582E2
:10022300E43400F583EFF09000D0EBF0A37400F01A
:10023300A37449F0A3EBF0A37400F0A37406F09049
:10024300004CE09000D6F07A000912050A807990FC
:100253000046E0FFA3E075F008A42406F582E43429
:1002630000F583E5822FF582E43583F583E0701191
:100273007B017A00794D900001E0FD9000D1EF8081
:100283002890004DE0FF900046E0FE6F703790002D
:100293008DE0FF900047E06F702B7B017A00794D72
:1002A300900001E0FD9000D1EEF01206887B017A08
:1002B30000798D900001E0FD900047E09000D1F0BF
:1002C30012068880037F01229000D07401F0A3748A
:1002D30000F0A3744DF0A37401F0A37400F0A374B1
:1002E3008DF0900001E09000D6F0900048E090007F
:1002F300D7F0900049E09000D8F07B017A007906AE
:0603030012044E0200C9C5
:0B06DE009000DBEBF0A3EAF0A3E9F0D2
:1006E900E4A3F0E49000DFF09000DEE075F008A4E8
:1006F900FF9000DBE0FBA3E0FAA3E02FF9EA35F075
:10070900FA9000DFE07E0029F9EE3AFAE41203716B
:100719009000DFE004F0E0B408CE9000DEE004F0E1
:04072900E0B408BF71
:01072D0022A9
:10077B00EF1392A7EFC3131392A6EF1313543F1368
:10078B0092A2EF131313541F139295EFC4540F132C
:10079B0092A1EFC4135407139293EFC41313540392
:0E07AB00139292EFC413131354011392A4225D
:1007B900EF139294EFC313139291EF1313543F1352
:1007C9009296EF131313541F139290EFC4540F13FF
:1007D90092A3EFC4135407139297EFC4131354034E
:0E07E9001392A5EFC413131354011392A02210
:02082F00AE0712
:100831007C807F80EFA805088002C313D8FCFDFFF0
:100841001207B9AF06ECA807088002C313D8FCFC55
:10085100F4FF12077B7F017E001209967FFF0207DA
:010861007B1B
:0B062A009000CDEBF0A3EAF0A3E9F094
:10063500E4A3F0E49000D1F09000D0E075F008A4B8
:10064500FF9000CDE0FBA3E0FAA3E02FF9EA35F037
:10065500FA9000D1E0FF7C0029F9EC3AFA1203097F
:1006650060089000D0E0FD12082F9000D1E004F062
:10067500E0C3940840C29000D0E004F0E0C39408C1
:0206850040B182
:010687002250
:0300000002059E58
:0C059E00787FE4F6D8FD7581070205E5C2
:10030900BB010689828A83E0225002E722BBFE02F2
:09031900E32289828A83E4932225
:10032200BB010CE58229F582E5833AF583E0225090
:1003320006E92582F8E622BBFE06E92582F8E222DA
:0D034200E58229F582E5833AF583E49322F4
:10034F00BB010989828A83F8E028F022500327F73E
:10035F0022BBFE05F8E328F3228A838982F8E4930F
:02036F00282242
:10037100BB010689828A83F0225002F722BBFE016B
:02038100F32265
:10038300F8BB010DE58229F582E5833AF583E8F0B0
:10039300225006E92582C8F622BBFE05E92582C85C
:0203A300F22244
:1003A500C2D5EC30E709B2D5E4C39DFDE49CFCEE73
:1003B50030E715B2D5E4C39FFFE49EFE1203E1C307
:1003C500E49DFDE49CFC80031203E130D507C3E402
:0603D5009FFFE49EFE22E2
:0603DB008A838982E473AD
:10072E009000E01204367810EC4D4E4F70047CA50C
:10073E007DA5C3EC13FCED13FDEE13FEEF13FF507E
:10074E0010EC64CCFCED644CFDEE644EFEEF64CE1A
:10075E00FFD8DF9000E0120442EE547FFE2290009C
:0D076E00E0EEF0EFA3F0A374A5F0A3F022DD
:1005AA00020862E493A3F8E493A34003F68001F2FD
:1005BA0008DFF48029E493A3F85407240CC8C33352
:1005CA00C4540F4420C8834004F456800146F6DF21
:1005DA00E4800B01020408102040809009A0E47E08
:1005EA00019360BCA3FF543F30E509541FFEE49316
:1005FA00A360010ECF54C025E060A840B8E493A3DD
:10060A00FAE493A3F8E493A3C8C582C8CAC583CA07
:10061A00F0A3C8C582C8CAC583CADFE9DEE780BEBF
:0109A6000050
:1003E100BC000BBE0029EF8DF084FFADF022E4CC00
:1003F100F875F008EF2FFFEE33FEEC33FCEE9DECC9
:10040100984005FCEE9DFE0FD5F0E9E4CEFD22ED0E
:10041100F8F5F0EE8420D21CFEADF075F008EF2F58
:10042100FFED33FD4007985006D5F0F222C398FD49
:050431000FD5F0EA22E6
:0C043600E0FCA3E0FDA3E0FEA3E0FF2239
:0C044200ECF0A3EDF0A3EEF0A3EFF0222D
:00000001FF
